:1000000000000110E500000075010000590100002A
:100010007501000075010000750100007501000008
:100020007501000075010000750100007F2A0000C5
:100030007501000075010000832A0000872A000076
:10004000E5510000E5510000E5510000E5510000D8
:10005000E5510000E5510000E5510000E5510000C8
:10006000E5510000E5510000E5510000E5510000B8
:10007000E5510000E5510000E5510000E5510000A8
:10008000E5510000E5510000E5510000E551000098
:10009000E5510000E5510000E5510000E551000088
:1000A000E5510000E5510000E5510000E551000078
:1000B000E5510000E5510000E5510000E551000068
:1000C000E5510000E5510000E5510000E551000058
:1000D000E5510000E5510000E5510000E551000048
:1000E000E551000008B500F057F900F073F900F091
:1000F0009DF800F079F900F095F801F0A5FB01F00A
:10010000CFFA00F0BFF840B141F28734002501F08A
:10011000C7FB8D4208BF8442F9D200F082F918B9BA
:100120000849094807F040F80649084807F03CF834
:1001300005F064FB064B07481B68D96805F0B8FF5B
:10014000FEE700BFC8BB0000D4BB000001BC00003C
:10015000082B001019BC00001EF0040F0CBFEFF3B9
:100160000880EFF309808169004A1047D10100003F
:100170007047FFFF38B50F4C0F4B10481D782368B0
:10018000D96805F095FF23680D49D8682A4605F01F
:1001900017FF0F2D236807D80A4A0B4952F825206C
:1001A000D86805F00DFFFEE7D968084805F080FF24
:1001B000F9E700BF082B001004ED00E054BC00007C
:1001C0006EBC000060BD0000A8BC0000C6BC000002
:1001D00010B5044600F04AF8236883606368C36082
:1001E000A3680361E3684361236943626369013B78
:1001F000C361A3698361E3690362BFF34F8F05495C
:10020000054BCA6802F4E0621343CB60BFF34F8F23
:1002100000BFFDE700ED00E00400FA05004870476C
:1002200000D8B8050048704700D8B8050E4B072223
:10023000C3F88420AA210122C3F88020C3F88C10BF
:100240005521C3F88C10C3F8A821D3F88820520593
:10025000FBD51A6822F4704242F480421A6040F2E0
:100260000112C3F80421704700C00F400248034A3E
:10027000034BC0E90023704700000020EFBEADDE55
:100280001041522138B5224C224B22689A423DD16E
:100290006268214B9A4239D1204D21482B68D96898
:1002A00005F006FF2B68A2691E49D86805F088FE94
:1002B0002B68E2691C49D86805F082FE2B68226A27
:1002C0001A49D86805F07CFE2B68A2681849D868DE
:1002D00005F076FE2B68E2681649D86805F070FED6
:1002E0002B6822691449D86805F06AFE2B68626998
:1002F0001249D86805F064FE2B681148D96805F0EA
:10030000D7FE01200023C4E9003338BD0020F9E7FF
:1003100000000020EFBEADDE10415221082B00107E
:10032000A0BD0000F3BD000002BE000011BE000031
:1003300020BE00002FBE00003EBE00004DBE0000EB
:100340005CBE00000E4A136810B50E4C1918A1428D
:10035000116002D30C4CA1420BD313600B4A0C4921
:1003600013681844884208D30A49884205D21060AD
:1003700001E0002BF2D0184610BD0023FBE700BFC0
:100380000000001028000020008000200400001061
:100390009046001000000110094A0A4B0A498B429E
:1003A00005D30A4B0A4A0021934205D3704712F83D
:1003B000010B03F8010BF2E703F8011BF4E700BFA0
:1003C000A4D1000000000010DC2C0010E02C001074
:1003D00090460010034AD2F8883043F47003C2F804
:1003E0008830704700ED00E0044800232021C21847
:1003F0000133292B82F80013F9D1704700E100E0A6
:1004000008B52A2219233821022004F071FD0D229B
:100410003821022004F028FDA0F12A035842584157
:1004200008BDFFF7EDBF42884378007843EA022316
:1004300040EA0320704710B5024410F8013B11F860
:10044000014B9042A3EB040301D0002BF5D01846DA
:1004500010BD02684AB1134613F8011B1F290BD9BE
:100460003A29F9D1911C8B4202D04FF0FF307047EE
:100470001278302AF9D103600020704770B500F17E
:100480003806426B044601233146407800F05EFA9C
:10049000054688B9616BA36A226AE070CB1A934261
:1004A00008D2A378022B05D10A4401233146607893
:1004B00000F04CFA284670BD0125FBE738B5436BC8
:1004C0008B4204460D4619D0C3788BB901232A46C6
:1004D00004F13801607800F025FA002818BF4FF0C9
:1004E000FF35034665630CBF03460123184638BD3C
:1004F000FFF7C4FF03460028F8D1E7E70023F5E73C
:1005000038B50023C3704FF0FF3343630546FFF750
:10051000D5FF044618BB95F8372295F8363243EAE2
:1005200002234AF6552293421BD195F83830EB2B23
:1005300003D01833DBB2012B15D803220B4905F188
:100540006E00FFF778FF40B10522094905F18A00E6
:10055000FFF771FF002818BF0224204638BD04248D
:10056000FBE70324F9E70224F7E700BF30BF0000F0
:1005700034BF00002DE9F043002385B00B600F4627
:100580001546FFF766FF061EC0F23981A44B53F8EB
:100590002640002C00F03581206900F0A2F90028E7
:1005A00000F031813C60237805F0FE056BB1607886
:1005B00000F0B3F9C10708D41DB110F0040500D054
:1005C0000A25284605B0BDE8F0830023F0B2237069
:1005D000607000F094F9C20700F117810DB1430774
:1005E000EED400212046FFF78BFF022840F0EE807A
:1005F0006F4604F5FF7104F23E263D4611F8040CE7
:1006000010B10846FFF70FFF10318E4245F8040B7A
:10061000F4D1002557F8046B002E00F0CE8031464F
:100620002046FFF76DFF012800F2C88094F84420AF
:1006300094F8433043EA0223B3F5007F40F0CA80C8
:1006400094F84F3094F84E5055EA032504D104F144
:100650005C00FFF7E8FE054694F8481025624B1E43
:10066000012BA17000F2B68094F845901FFA89F32F
:100670006381002B00F0AE8009F1FF3313EA090F0C
:1006800040F0A88094F84A3094F8497047EA03276C
:100690003FB21FFA87F818F00F0FA4F8088040F057
:1006A000998094F84C3094F84B0050EA032003D121
:1006B00004F15800FFF7B7FE94F8472094F846304D
:1006C00053EA022300F0868005FB01FC03EB1812BD
:1006D000624490427ED3801A4845B0FBF9F179D349
:1006E0005048814276D84FF6F570814240F28F80B3
:1006F0004FF00309023133443244B9F1030FE16191
:100700006662A362226369D194F8632094F8623030
:1007100043EA02231F433FB2002F5BD104F1640080
:10072000FFF781FEE062890001F2FF11B5EB512F66
:1007300050D34FF0FF33C4E90533B9F1030F4FF045
:10074000800323712FD194F8692094F8683043EA2C
:100750000223012B27D1711C2046FFF7AFFE10BBEF
:1007600094F8372294F83632207143EA02234AF68D
:100770005522934217D104F13800FFF754FE2A4B5B
:10078000984210D104F50770FFF74DFE274B9842B1
:1007900009D104F50870FFF746FEA06104F5097061
:1007A000FFF741FE6061224A84F80090138801330C
:1007B0009BB21380E380002503E703200135042D5D
:1007C0007FF428AF042805D10125FAE60428FBD0E0
:1007D000012801D90D25F4E6002627E7B8F1000F1E
:1007E000F8D06344B9F1020FE3624FEA41031BBF43
:1007F0005B1801F00101194601EB530194E70B2549
:10080000DFE60C25DDE60F25DBE60325D9E640F61D
:10081000F57949458CBF4FF002094FF0010969E7AE
:10082000E02C0010F5FFFF0F5252614172724161DE
:10083000E42C001040B1A1F10B03012B04D90F29C6
:1008400002D0006900F056B87047FFFFF0B585B0E0
:10085000CDE9001003A814460391FFF7FAFD051E29
:1008600028DB154F57F825604EB1306900F034F899
:1008700018B90224204605B0F0BD00233370019959
:1008800079B9019B47F82530002CF3D001A900224B
:100890006846FFF76FFE044601460198FFF7CAFF5E
:1008A000E8E7002301F8103BE8B200F007F8002861
:1008B000E7D1DEE70B24DDE7E02C001010B50120C6
:1008C0000C46044902F0D2FC2060003018BF012021
:1008D00010BD00BFE82C001008B502F04BFF01204E
:1008E00008BD08B540F6B83102F036FE431E584246
:1008F000584108BD00231A46194602F009BC10B53C
:10090000044600F063FF34B900F0FAF8044600F042
:1009100077FF204610BD0424F9E708B900F08EB92E
:1009200004207047F8B507460C4615461E4600F0F1
:100930004DFF4FB92046F2B2294600F087F9044630
:1009400000F05EFF2046F8BD0424F9E7F8B507463D
:100950000C4615461E4600F039FF4FB92046F2B24C
:10096000294600F0B9F9044600F04AFF2046F8BDD8
:100970000424F9E738B500F093FF00F5FA75FF207D
:1009800004F09AFDFF2004F097FDFF28044603D0F1
:1009900000F086FF8542F5D8204638BD08B503F043
:1009A00051FFFFF7E7FF03F055FF034A137843F0C9
:1009B0000103137008BD00BF0800001038B50546DC
:1009C0000C46FFF7D7FFFF2821D1204604F074FD25
:1009D000FD2C1ED0AC1C05F2022514F8020C04F00C
:1009E0006BFD023414F8030C04F066FDAC42F4D144
:1009F000FF2004F061FDFF2004F05EFDFF2004F005
:100A00005BFD00F01F00431F5842584138BD0020D5
:100A1000FCE70120FAE737B5020604460D4607D584
:100A200000217720FFF7F7FF012831D804F07F0479
:100A300003F010FF03F006FFFFF79CFFFF282BD108
:100A4000402C27D0482C0CBF872301232A0E8DF879
:100A500001202A0C8DF8022006212A0A68468DF80A
:100A600000408DF803208DF804508DF8053004F017
:100A70002DFD4C2C02D1FF2004F01EFD0A24FF2086
:100A800004F01AFD030603D5013C14F0FF04F6D16F
:100A900003B030BD9523D9E7FF20F9E770B50546CF
:100AA00000F0FEFE00F16406FF2004F005FD0446A0
:100AB00000F0F6FE864201D3FF2CF5D0FE2C0CD1BF
:100AC0004FF40071284604F004FDFF2004F0F4FC0C
:100AD000FF2004F0F1FC012070BD0020FCE7FFFFC7
:100AE00038B5064D2C78E4B203F0BCFE18B104F022
:100AF000FD042C7038BD44F00304FAE70800001030
:100B00002DE9F341FFF7ECFF4A4B1A7812F0020F80
:100B10001E4604D01878C0B202B0BDE8F081C820EB
:100B200004F092FC0A25FF20013D04F0C5FC15F0FD
:100B3000FF05F8D103F086FE29464020FFF76BFF42
:100B40000128044671D100F0ABFE4FF4D57100F5D9
:100B50007A774820FFF75FFF012848D101ADA8460A
:100B60000424FF2004F0A8FC013C14F0FF0408F862
:100B7000010BF6D19DF80630012B56D19DF80730B8
:100B8000AA2B52D100F08CFE874206D94FF080414B
:100B9000E920FFF740FF0028F4D100F081FE8742F2
:100BA00043D900217A20FFF736FF00283DD10424E5
:100BB000FF2004F081FC013C14F0FF0405F8010B58
:100BC000F6D19DF8043013F0400F14BF0C24042418
:100BD000194B1C7003F03EFE4CB3337845F6C05001
:100BE00003F0FE03337004F02FFC307893E72946BE
:100BF000E920FFF710FF022836BFE925412502242E
:100C000000F04EFE874205D900212846FFF703FF7A
:100C10000028F5D100F044FE874206D84FF4007159
:100C20005020FFF7F8FE0028D2D00024D0E7FFF7CD
:100C3000B5FEDAE708000010382D001008B5FFF700
:100C40004FFF014B187808BD0800001070B514461E
:100C500005460E46FFF744FF002C35D01C4B1B7891
:100C6000DA0733D403F0EEFD1A4B1B781B0758BF8D
:100C70007602012C314611D15120FFF7CCFE38B954
:100C80004FF400712846FFF709FFB0FA80F46409B9
:100C900003F0E0FD201C18BF012070BD5220FFF7BB
:100CA000BAFE0028F4D14FF400712846FFF7F6FE93
:100CB00028B1013C14F0FF0405F50075F3D10021C3
:100CC0004C20FFF7A8FEE3E70420E6E70320E4E773
:100CD00008000010382D001070B5144605460E4669
:100CE000FFF7FEFE002C41D0234B1A78D0073FD4EB
:100CF0001B7859073ED403F0A5FD204B1B781A073B
:100D000058BF7602012C11D131465820FFF783FEDF
:100D100050BBFE212846FFF751FEB0FA80F464096B
:100D200003F098FD201C18BF012070BD13F0060FC2
:100D300003D02146D720FFF76EFE31465920FFF73A
:100D40006AFE0028ECD1FC212846FFF737FE28B1C7
:100D5000013C14F0FF0405F50075F4D1FD210020DD
:100D6000FFF72CFE0028DBD10124D9E70420DCE7C3
:100D70000320DAE70220D8E708000010382D001021
:100D800008B5064606F007FC00240546A54200DC2F
:100D9000FEE7315D002004F091FC0134F6E7FFFF2F
:100DA00002280CD9074B1B685A68824207D09A6800
:100DB000824204D0DB681B1A584258417047012018
:100DC000704700BF082B001008B50148FFF7D8FF97
:100DD0003ABF00000020704700207047F8B5044675
:100DE0000E461546FFF7DCFF48B3164B1B68DB6861
:100DF000A34210D0A31E5C425C4103F0A1FA074657
:100E0000002004F00FFC022F17D1B0B1ACB9A542FD
:100E100003DC2846F8BD0124EFE7315D4FF0FF32D7
:100E2000002004F0ADFC0134F1E7315D002004F056
:100E300045FC0134A542F8DCEBE70024FAE7024860
:100E4000FFF79EFF082B001092BF000038B50C463C
:100E5000FFF7A6FFA8B103F073FA0546002004F0DF
:100E6000EBFB022D08D138B14FF0FF3221460020B4
:100E700004F036FC012038BD2146002004F056FC69
:100E8000F8E70148FFF77CFF60BF00002DE9F04F55
:100E900085B002AC84E80C000646244ADFF89C903A
:100EA000DFF89CA0DFF89CB0884694E8030001F0CE
:100EB0007DFB94E80300B56801F050FB0146404615
:100EC000A847356815B905B0BDE8F08F6F6838469A
:100ED00006F061FB2B68009732288CBF52464A46C9
:100EE00094E8030001F062FB5A4694E8030001F025
:100EF00031FD0F4A074694E8030001F02BFD07B9C6
:100F000020B10C4A94E8030001F0F3FB0A4A94E88C
:100F1000030001F0EEFB94E80300B76801F01EFB4C
:100F200001464046B847ED68CCE700BFC5BF0000AA
:100F30000CC0000096C100000BC0000021C00000E2
:100F40000EC000002DC0000030B504294FF0000590
:100F500038BF04210560C0E90112C36030BD11B182
:100F60000368CB60016070472DE9F04F87B06E4693
:100F700086E80C000546634A884696E8030001F0BF
:100F800055FD614A96E8030001F01BFC002856D08D
:100F900096E8030002AC5C4A84E8030001F0E4FB3D
:100FA00030B194E80C0041462846FFF76FFF3DE062
:100FB00094E80300202201F0E7FC94E8030004AF6A
:100FC00087E803002E68DFF848912EB994E8030003
:100FD0002E6887E8030010E04B46326897E803006C
:100FE00001F028FCD0B9F668EFE76B68326897E843
:100FF000030001F0CBFB88B9F668002EF5D132462C
:10100000424B94E8030001F02DFB94E80300AE6826
:1010100001F0A4FA01464046B04703E0AB687168AE
:1010200040469847AB68374940469847E9680029E9
:1010300065D0AB68404607B0BDE8F04F1847DDE922
:1010400000A9CDE904A92E68314F04AC1EB9CDE941
:1010500004A92E6810E03B46326894E8030001F0D2
:10106000E9FBE0B9F668F1E76B68326894E80300E1
:1010700001F08CFB98B9F668002EF5D1CDE904A9F2
:101080003246244B94E8030001F0ECFA94E80300A4
:10109000AE6801F063FA01464046B04781E7CDE90A
:1010A00002A90DF1080B20229BE8030001F06CFC63
:1010B000B768AB689BE806004046B8470028B5D043
:1010C000CDE904A9144B002294E8030001F0CAFA08
:1010D00094E80300AF6801F041FA01464046B84782
:1010E00073680E4A94E8030001F060FA94E8030084
:1010F000AE6801F033FA01464046B04796E707B0C4
:10110000BDE8F08F0BC000002FC0000062C00000DF
:101110005CCF00008BC0000034C0000045C0000060
:1011200010B54C1E14F8010F00B910BD06F054F8AC
:10113000F8E7FFFF2DE9F041A6B06E468046224B4E
:10114000802206A9304601F07AFA02AC96E80C003B
:1011500000214046FFF708FF96E8030084E80300FB
:1011600001F003FA04AD94E8030001F08CFB0028C1
:10117000ECD104F0A5FFC7B294E80300082F85E87E
:10118000030017D101F0C6F968B1012295E8030008
:1011900001F0C5FB384606F01FF8202006F01CF8C9
:1011A000384606F019F894E8030001F0BEF900286B
:1011B000D9D0CBE7384606F00FF83A4695E8030059
:1011C00001F0BEFAEFE700BF2FC0000030B589B0D4
:1011D00004AD2846144B154A154C0421FFF7B4FE04
:1011E00095E80F0084E80F0020461249FFF7B7FE8C
:1011F00020461149FFF7B3FE20461049FFF7AFFE26
:1012000020460F49FFF7ABFE0E4B02930E4B0193A6
:10121000032300934FF4007223460C490C4802F05C
:1012200021FC09B030BD00BFBCC00000211100008E
:101230003C2D00103C0000102C0000101C00001081
:101240000C0000104C3500104C2D00100FC1000098
:10125000351100002DE9F047EAB00DF108090DF154
:10126000A80A89E80300164600214FF48072504610
:1012700008AC04F073FF0DF1180880220AA920467B
:1012800007AF01F027F9002501233B60C8F80050A3
:10129000CDE9008705AB2B4A059599E8030001F0DD
:1012A0009CF9012842D93B68009398F800209DF8EA
:1012B00014105346022003F0ADFD814648B3059B50
:1012C000214ADFF8909094E8030001F06FF994E868
:1012D000030001F043F901462846B0473B68AB42A2
:1012E00002D86AB0BDE8F0871AF80520D8F80030B7
:1012F000CDE900222B444A4694E8030001F056F958
:1013000094E8030001F02AF901460020B0470135B6
:10131000E4E70E4A94E8030001F073F994E803004F
:1013200001F01CF901464846B047DAE7084A94E85C
:10133000030001F066F994E8030001F00FF901469B
:101340002846F1E743C2000050C2000081C20000FD
:10135000AEC200006AC200002DE9F047EAB00025E5
:1013600002AE0DF118080DF1A80986E80300174632
:1013700029464FF48072484608AC0595C8F80050DD
:1013800004F0ECFE80220AA9204601F0A3F8CDF873
:10139000008005AB364A96E8030001F01EF90228EA
:1013A0005AD1202296E8030001F0EEFA202296E8B6
:1013B000030001F0E9FA079507AA96E8030001F097
:1013C000FDFA824608BB00954B4698F800209DF830
:1013D0001410022003F058FD064680B3059B0093CD
:1013E000244A2B4694E8030001F0E0F894E8030057
:1013F00001F0B4F801465046B8475646DFF880A0E1
:10140000B54207D16AB0BDE8F087079B09F80530FF
:101410000135D1E719F80620D8F80030CDE90022CF
:101420003344524694E8030001F0C0F894E8030006
:1014300001F094F801460020B8470136E0E70E4A73
:1014400094E8030001F0DDF894E8030001F086F869
:1014500001463046B847D5E7084A94E8030001F052
:10146000D0F894E8030001F079F801462846F1E746
:10147000EEC20000F8C200002FC300005DC30000F0
:1014800018C300002DE9FF416C4684E80600154AA8
:1014900094E803001F4601F094F9134A054694E8C6
:1014A000030001F08EF92022804694E8030001F049
:1014B0006BFA94E8030002AE86E8030035B13A46C1
:1014C000FFF7C8FE002004B0BDE8F081B8F1000FBE
:1014D00005D03A4696E80300FFF73EFFF2E7012009
:1014E000F1E700BF38C200003DC2000037B56C46CE
:1014F00084E8060094E803001D4601F02FF8014639
:10150000032000F0D6F908490020A84794E803001A
:1015100001F024F801460020A84704490020A8470C
:10152000002003B030BD00BF0DC400000BC00000A0
:1015300082B002AB03E906000123024A1A600020D0
:1015400002B07047EFBEADDE2DE9F04F8FB006AFB1
:1015500007F1080080E8060003C8994601F050F939
:10156000041E04DD03F000F8204602F0A1FCBB6875
:10157000BB61DAB0FB68FB6100257D6100F088FA91
:101580000DF1180B786007F114020A21584602F099
:101590008BFE07F118042A4B2A4A386094E80300AE
:1015A00001F004F894E8030000F0D8FF0146284653
:1015B000C847A8465E464FF0000A26E073694345D7
:1015C00020D1B2697B69154423B16421B3FBF1F3E7
:1015D000B2FBF3F3CDE90332338C1B4A9B00CDE918
:1015E0000183337B52F8233000937368174A94E8E1
:1015F000030000F0DBFF94E8030000F0AFFF0146BA
:101600000020C8470AF1010A24363B685345D5D16A
:1016100008F10108B8F10A0FCCD17B680C4A5B1BBA
:1016200094E8030000F0C2FF94E8030000F096FF86
:1016300001460020C84700202437BD46BDE8F08F92
:10164000AFC30000B4C3000048C40000DFC3000003
:10165000FCC30000F8B504460D4600F00BF906196E
:1016600041EB050702F06CFE02280CD100234FF479
:101670007A72AB4208BFA24205D22046294604F046
:101680001DFB02F015FC00F0F5F8B94208BFB042AE
:10169000F9D3F8BD4FF47A73A0FB0301FFF7DABF6B
:1016A00030B585B003F04CF803F0E6F88DF80C0087
:1016B00003F0E8F88DF80D0003F0EAF88DF80E005D
:1016C00003F0ECF800248DF80F0004AA04F00303E3
:1016D0001344013413F8040C03F008FA3220FFF726
:1016E000D9FF202CF1D1294B18680023194602227A
:1016F000406805F03FFEFEF795FD002501464FF4DA
:10170000E132002003F04AFF0095214B214A0121DC
:10171000204601F08DFC204B009504461F4A012114
:10172000802001F085FC22460146284603F08EFF0A
:1017300045F6C05003F09EFE012219491948FFF7F3
:1017400085F8194A194B1A49A84208BF1346194A85
:1017500019481A4D05F028FDFEF764FD184B00935B
:101760000246184B1849022003F0F8FA0224E1B2AD
:10177000022003F0B1FB18B12146284605F014FD04
:101780000234B4F5807FF2D105B030BD082B0010D3
:10179000683600104836001070390010F03800101C
:1017A0000DC00000B83600106DC400008BC40000EE
:1017B000B2C400005CC4000003C5000023C50000E3
:1017C000F8350010A8350010801A060010B50A4C34
:1017D000236823B90949012001F048FD206002F087
:1017E000AFFD022806D120684FF0FF31BDE8104060
:1017F00001F0B2BE10BD00BFC0390010C4390010E6
:1018000010B502F09DFD022808D1054800231A46B4
:1018100019460068BDE8104001F07ABC10BD00BF59
:10182000C0390010074A08B5136800210133084683
:10183000136003F0B5F900210846BDE8084003F045
:101840009BB900BF143A001008B5074A0749B0FB1E
:10185000F1F10020013903F059F90021044A08464A
:10186000BDE8084003F076B92518000040420F009B
:101870000087930370B5084E002003F089F90546F0
:101880000020346803F084F98542F5D8034B002129
:10189000E3FB040170BD00BF143A001000879303FE
:1018A00008B5FFF7E7FF4FF47A72002304F006FA59
:1018B00008BD70B5054608460C4605F06CFE2618B6
:1018C000B4424FF0FF320BD10D21284603F058FFF0
:1018D00028464FF0FF320A21BDE8704003F050BFA8
:1018E00014F8011B284603F04BFFE9E770B50546E5
:1018F00008460C4605F04FFE2618B44205D128468E
:101900000A21BDE8704003F0D9BE14F8011B284637
:1019100003F0D4FEF1E7FFFF004870474C000010D1
:1019200009B103F0C7B803F0D3B8FFF7F9BFFFF769
:10193000F7BFFFFF10B5304CA179607903F094F840
:10194000A17B2071607B03F08FF8A17D2073607D07
:1019500003F08AF8A17F2075607F03F085F894F882
:101960002610207794F8250003F07EF894F82E10C6
:1019700084F8240094F82D0003F076F894F83610DB
:1019800084F82C0094F8350003F06EF894F83E10BB
:1019900084F8340094F83D0003F066F894F846109B
:1019A00084F83C0094F8450003F05EF894F84E107B
:1019B00084F8440094F84D0003F056F894F856105B
:1019C00084F84C0094F8550003F04EF894F85E103B
:1019D00084F8540094F85D0003F046F894F866101B
:1019E00084F85C0094F8650003F03EF884F8640025
:1019F000BDE8104003F05EB84C0000100C4600201B
:101A0000044908B5FFF772FF21460020FFF76EFF7B
:101A1000FEE700BF9DC6000008B502490020FFF7A1
:101A200065FFFEE763C60000024B0022C3F8C0203A
:101A300030BF704700C00F4008B50C4600200A496F
:101A4000FFF754FF09490020FFF750FF0849002025
:101A5000FFF74CFF07490020FFF748FF2146002011
:101A6000FFF744FFFEE700BF6BC50000BDC50000E7
:101A700000C6000034C60000034B0360034B0B603C
:101A800064231360704700BFB03B0010203A001081
:101A900008B5FFF7EFFE024B1B68C01A08BD00BF78
:101AA000183A001008B5FFF7E5FE024BC3E9000144
:101AB00008BD00BF183A001010B5044605F016FC2A
:101AC000062390FBF3F202FB1300064AA370125C9C
:101AD000227005233A22E3700123627023712046AD
:101AE00010BD00BFBAC60000584B1B78013B10B5B3
:101AF000072B24D8DFE803F004122433455D758EEC
:101B00000378534A591E023B1170DBB24178517081
:101B1000FD2B01D900231370104610E003784D4AC5
:101B20000133DBB21370407850704978C1F1200165
:101B30008B42104601DAFF2BEED10170454810BDF3
:101B4000454B02781A704278A2F10801C9B2F72910
:101B500094BF02F1FF3206225A701846EFE73F4A5F
:101B60000378137043780133DBB253700978C1F105
:101B700040018B42104601DAFF2BCDD1417037482E
:101B8000DDE70178364B4A1E1A7042780239C9B235
:101B9000FD2902F1FF30A2F1080288BF0021D2B274
:101BA00088BF1970F72A587001D906225A702C483C
:101BB000C5E703782B4A0133DBB213704078441E2B
:101BC00054704978C1F120018B4201DAFF2B00D11A
:101BD00011700838C0B2F72801D906235370214884
:101BE000ADE70478204A631E13704378023CE4B2E8
:101BF000FD2C03F10103DBB284BF00201070537091
:101C00000978C1F140018B4201DAFF2B00D15170FC
:101C1000154894E70278154C0132D2B2227043780D
:101C20000133DBB263704878C0F12000824201DAF0
:101C3000FF2A00D120700A78C2F14002934201DAF3
:101C4000FF2B00D16270094879E700BF0C3C0010FF
:101C50000D3C00100F3C0010113C0010133C001014
:101C6000153C0010173C0010193C00101B3C0010E4
:101C700008B502F057FD0268A2F5E163B3F5C87F2D
:101C80002ED84068A0F5E163B3F5C87F1BD940F6B4
:101C9000C31398421DDC40F2DC539842D4BF0220AB
:101CA00000202EE04068A0F5E162B2F5C87F08D9B7
:101CB00040F6C31290420ADC9842D4BF06200020AE
:101CC0001FE003201DE000201BE0042019E0052098
:101CD00017E0012015E09842D4BF0820002010E052
:101CE00040F2DC539A42DDDD40F6C3118A42EADD60
:101CF0004068A0F5E162B2F5C87FE6D98842EADD26
:101D00000720014B187008BD0C3C0010034A034625
:101D100007CA83E807001846704700BFC0C6000026
:101D200038B50E4B054600EB80001C18811C194489
:101D3000204603F011F90A4A20461378013BAB42D2
:101D400000F1050001DC137038BD0346013553F87E
:101D5000051940F8051C01791971EEE7283C0010BF
:101D60008E3C00100E4A08B5002313600D4A136024
:101D70000D4A13700D4B14229A600D4B186802F037
:101D800019F90C4B186802F015F90B4B186802F0A2
:101D900011F90A4B1868BDE8084002F00BB900BF02
:101DA000243C0010C43C00108E3C0010C83C0010C5
:101DB000684600106C46001078460010744600100B
:101DC0002DE9F347DFF81091DFF8108199F8003022
:101DD000022B32D14FF0FF31D8F8000001F0BCFBEC
:101DE00058B3384C384B22681B68384D384E9A42ED
:101DF00012DB2B68092B0DDC6846FFF75DFE2B68B4
:101E0000009803EB8302B118B05001339DF8042011
:101E10000A712B60002323602368DFF8C4A001331C
:101E200023602B4C00262B68B3420BDC00231A46A0
:101E30001946D8F8000001F06BF9264B186802F03B
:101E400037F8C3E72379A71C3946204603B303F0CC
:101E500083F86378013BDBB2052B13D963703A46F4
:101E60002146504603F050F83946204603F09CF9CD
:101E7000202804DD00232371022000F0A7FA013698
:101E80000534D0E73A236370022000F0A7FAE6E7B2
:101E900003F062F8234631462A68013A914203F181
:101EA000050305DB022104202A6003F07CFAE6E743
:101EB0001A46013152F8050943F8050C18791071DA
:101EC000EAE700BF243C0010D8180010C43C001002
:101ED000923C0010D4180010D2180010203C0010C2
:101EE000B40000102DE98048012089B001F0D3F939
:101EF000724FDFF80092DFF800823860CB4699F825
:101F00000030012B05D0022B1AD0322001F0D0FF77
:101F1000F5E798F80030012BF7D06C462046FFF724
:101F2000F5FE94E80700664D85E80700FFF71AFF05
:101F3000644803F02BF999F8003088F80030E4E7A2
:101F400098F80030022B35D05F4B604E1868DFF8F0
:101F5000A0A101F021FE5E4B186801F01DFE5D4B53
:101F6000186801F019FE5C4B186801F015FE544B1F
:101F700093E8070005AC84E8070003F0F3F80025B8
:101F80009DF81820554B95426ADB0025E8B20722E0
:101F90000521013503F0DEF8202DF7D100F004FA19
:101FA0000DF1160221464E4802F0AEFF9BF80030BC
:101FB00088F800304FF0FF31386801F0CDFA002882
:101FC000A3D0FFF755FE474E002860D03C4CA11C23
:101FD000204602F0C1FFA11C2046FFF785FD0378D3
:101FE000237043786370337813B1642001F060FF8D
:101FF0003D4A911E3A4802F087FF314CA368132BEB
:10200000A24641DD0025A11C2046357003F0CCF826
:10201000642819DD0123337023792C4E013B237191
:10202000324B35701B88ADF8143005A9304602F0EC
:1020300093FF9AF80420294B95421BDB00230121D2
:102040000420A36003F0AFF9237913B903238BF8BD
:10205000003000231A461946386801F059F854E751
:1020600052461A49184602F04FFF32780532327054
:10207000013585E71E4A1549184602F045FF3278BA
:10208000053232700135D4E70133A360DCE73378E1
:10209000002BB2D00A4CA11C204602F05DFFA11C0F
:1020A0002046FFF721FD0378237043786370642096
:1020B00001F0FEFEA21C21469CE700BF203C001060
:1020C000C83C001013210010684600108C3C001022
:1020D0006C4600107846001074460010FA2000107C
:1020E000DC200010903C0010CA3C0010CCC6000060
:1020F0000E210010D2180010913C001083B5484EFC
:10210000484C3546317802292BD0032963D0012968
:1021100079D123781BB90846217003F03FF902F00A
:10212000F5FB02F011FC00286DD00321042003F020
:102130003AF93D4803F02AF840F21450FFF7AAFAA2
:102140003A4803F023F840F21450FFF7A3FA384856
:1021500003F01CF840F21450FFF79CFA02232B7096
:1021600036E023781BB103F007F90023237002F057
:10217000EBFB002847D02F4B1F784FBB02210846AE
:1021800003F011F92C4A2D48537812788DF8047019
:10219000073302328DF800208DF801300DF1020274
:1021A00040F203136946ADF8023002F0ADFE244A56
:1021B0001378092B0CD8234F009803EB830107EB0E
:1021C000010C785001339DF804108CF80410137042
:1021D00002F0C0FB17E0237823B9012308462370DF
:1021E00003F0E1F8184F3B78032B10D0FFF7BAFD4E
:1021F000164802F0CBFF2B783B7002F0ABFB40F6A9
:10220000B83001F055FE142001F052FE7AE702F0DA
:102210009BFB0028F7D00023237001239FE700BF1A
:10222000D21800108F3C0010D2100010D2080010FD
:10223000D2000010903C0010C83C0010102100108B
:102240008E3C0010283C0010913C0010DC1800105F
:102250002DE9F84FDFF89090214F99F80030022BCC
:1022600017D14FF0FF31386801F076F988B11D4C75
:10227000DFF878A0DFF878B000254FF001089AF871
:102280000030AB4209DC00231A461946386800F0DA
:102290003FFF142001F00CFEDFE72379E8B223B9F9
:1022A00063783C2B04D984F80480FFF739FD14E0EF
:1022B000A61C3146204602F04FFE637832460133B9
:1022C00021465846637002F01FFE3146204602F058
:1022D0006BFF092801DD84F8048001350534CEE761
:1022E000203C0010283C0010D21800108E3C00103A
:1022F0001021001038B51F4D1F4C00F0DFF8421FB1
:102300005E2A2AD9A0F16503622B28D9A0F1C9035E
:10231000C62B26D96FF4C871431840F23E618B4238
:102320008CBF32236FF004035E2A2B601BD9A0F10F
:102330006503622B19D9A0F1C903C62B17D96FF415
:10234000C873184440F23E6398428CBF64202D202D
:102350002060322001F0ACFDCFE70A23E4E705233B
:10236000E2E70023E0E73C20F2E73720F0E7322005
:10237000EEE700BFD8180010D418001070B5084C54
:10238000084D04EB410406462946204602F0E4FDD0
:102390002A4621463046BDE8704002F0B5BD00BF78
:1023A00013290010B129001038B5064B064D002442
:1023B0001C60E1B228460134FFF7E0FF042CF8D19D
:1023C00038BD00BFD43C00101B290010024A13681E
:1023D00018441060704700BFD43C0010024A1368D4
:1023E000181A1060704700BFD43C0010244B1A68C4
:1023F00042F20F718A422DE9F04114DD19600A267C
:102400001D68DFF8A4800024374695FBF6F306FB31
:102410001353DBB2092B0FD8DFE803F00A16191C9F
:102420001F2225282B2E002ABCBF00221A60E6E7B7
:1024300014482146FFF7A2FF95FBF7F50134E4B2FB
:10244000042CE2D1BDE8F08121460F48F2E7214695
:102450000E48EFE721460E48ECE721460D48E9E734
:1024600021460D48E6E721460C48E3E721460C48A3
:10247000E0E721460B48DDE721464046DAE700BFAA
:10248000D43C00101B2900102A2900103929001003
:1024900048290010572900106629001075290010DE
:1024A0008429001093290010A229001008B5FFF715
:1024B0009DFF642001F0FCFCF9E7FFFF014B186869
:1024C000704700BFD43C001018B109B1401A7047E2
:1024D0000846704738B5054614460B4649B152B117
:1024E0001846002103F03AFE0346C5E900342846A9
:1024F00038BD0C46F9E71346F7E782B002AB03E9B3
:102500000300DDE900301BB100B1013802B07047B3
:102510001846FBE782B002AB03E90300009810B154
:1025200002B005F038B802B0704713B56C4684E8C5
:102530000300009B23B9B1FA81F0400902B010BD3D
:1025400094E80300FFF7E6FF024694E80300FFF774
:10255000D4FF824234BF00200120EFE782B002ABFB
:1025600003E90300009802B0704782B002AB03E9B0
:102570000300009B33B1019810B100221A700120B2
:1025800002B070471846FBE707B50DF1080C0CE9DF
:102590000300009830B12AB1019919B105F002FF8A
:1025A000002800DC002003B05DF804FB0CB41FB56C
:1025B0006C4684E80300069A40B162B1084629B12E
:1025C00007AB94E803000393FFF7DEFF04B0BDE818
:1025D000104002B070471046F8E70CB41FB56B46C8
:1025E00083E80300069930B129B107AA039205F0E8
:1025F0000BFF002800DC002005B05DF804EB02B002
:102600007047F7B56D4685E8030014460646A0B14D
:102610009AB1084679B1104604F0BDFF074695E827
:102620000300FFF76AFF8742024606D8214630467C
:1026300004F0EEFF012003B0F0BD0020FBE738B549
:1026400004461D4621B90023C4E90033204638BDA5
:10265000002BF8D0FFF73EFF2A4694E80300FFF76F
:10266000D0FFF3E72DE9F04385B06D4685E8030020
:1026700016461F46044618B9002005B0BDE8F08391
:10268000002BF9D0DDF80480B8F1000FF4D095E804
:102690000300FFF73FFFB042EED3CDE902480DF152
:1026A000080898E80300FFF735FF8146384604F034
:1026B00072FF814498E80300FFF71FFF8145DBD8D4
:1026C000384604F068FF3444804604EB000995E87E
:1026D0000300FFF71FFFC6F10102024421464846EE
:1026E00003F022FD42463946204604F091FF0120C6
:1026F000C3E72DE9F3416C4684E80300154606461E
:10270000E0B1DAB10846B1B194E80300FFF702FF87
:102710000746284604F03FFF024607EB000894E80E
:102720000300FFF7EAFE804508D801322946F01978
:1027300003F0ECFC012002B0BDE8F0810020FAE7D4
:102740001FB56B4683E8030058B1084649B18DF8C0
:102750000C2000228DF80D2093E8030003AAFFF758
:10276000C8FF05B05DF804FB07B502AB03E9030041
:102770000098114628B13AB104F0E4FEB0FA80F0B6
:10278000400903B05DF804FB1046FAE7F7B56D4663
:1027900085E8030014461F46064680B17AB195E8E5
:1027A0000300FFF7B7FEB84209D33A462146304648
:1027B00004F01CFFB0FA80F0400903B0F0BD002027
:1027C000FBE773B56B4683E8030014460546A0B1EA
:1027D0009AB193E80300FFF79DFE0646204604F0F9
:1027E000DAFE8642024608D32146284604F0DCFE83
:1027F000B0FA80F0400902B070BD0020FBE7FFFF97
:1028000013B56B4683E80300044678B1084A93E8A1
:102810000300FFF7D6FF002814BF10220A22002170
:10282000204602B0BDE8104005F086BD02B010BDE4
:10283000CEC600002DE9F3416F4687E80300154638
:102840001C460646E8B1E2B1DBB197E80300FFF7AA
:1028500061FE8046284604F09EFE8045074610D360
:1028600002462946304604F0C1FE50B9F05D237897
:1028700083421ABFB0FA80F04009012002B0BDE8DF
:10288000F0810020FAE713B56B4683E803000446A5
:1028900068B193E80300FFF73DFE40B1204410F813
:1028A000010C0D2805D0A0F10A035842584102B08E
:1028B00010BD0120FBE7F7B56F4687E8030015461A
:1028C0001E460446A8B1084689B197E80300FFF701
:1028D00021FEA8420DD9401B864228BF0646A919F1
:1028E0000130821B2144601903F01EFC012003B05B
:1028F000F0BD0020FBE717B46C4684E803001346E4
:1029000040B139B194E80300002203B05DF8044BF4
:10291000FFF7D1BF002003B05DF8044B704737B517
:102920006C4684E80300154688B181B194E8030041
:10293000FFF7F0FDA84228BF421B94E8030038BF10
:1029400000222B4603B0BDE83040FFF7B4BF0020A3
:1029500003B030BD13B502AB03E90300009C7CB1AA
:1029600082B1019850B11146204604F064FE28B1AE
:102970002146FFF7A9FD00232354012002B010BD1A
:102980002046FBE71046F9E737B56C4684E80300BC
:10299000054678B171B1114604F0F0FD50B12946F9
:1029A000FFF792FD421C94E8030003B0BDE83040FD
:1029B000FFF7A1BF002003B030BDFFFFF7B56F46A2
:1029C00087E803001446064648B351B31649054646
:1029D0002A4612F8013BE3B15B5C580717D534B1C6
:1029E0000A220021284605F0A7FC206001240E4A97
:1029F000284615F8013B73B93146FFF765FD0246DD
:102A000097E80300FFF777FF204603B0F0BD1546B7
:102A1000DEE71C46EBE79B5C5B07E9D4ECE704468A
:102A2000F2E70C46F0E700BF51CE0000F7B56B4669
:102A300083E8030015460646F8B1EAB10846E1B15D
:102A400093E80300FFF766FD0446284604F0A3FD63
:102A5000631E3344284400219A1B002A02DB2A46C5
:102A6000824201D1012008E012F8014B1F78A742F1
:102A7000F6D103F80119EFE7104603B0F0BD00F0FE
:102A800077B800F0BDB800F0EDB810B5044601F01D
:102A9000FFF8204603F02AFB044601F093F90CB935
:102AA000FEF7BAFF204610BD10B5044640B101F054
:102AB000EFF8204603F022FBBDE8104001F082B998
:102AC00010BDFFFF08480068006880F308884FF0D9
:102AD000000080F3148862B661B6BFF34F8FBFF376
:102AE0006F8F00DF00BF000008ED00E0DFF80C0092
:102AF000016841F4700101607047000088ED00E05A
:102B000007B5002301930B4B1B68013304D00A491E
:102B1000EF20FEF791FFFEE74FF0180383F31188D3
:102B2000BFF36F8FBFF34F8F019B002BFCD003B01F
:102B30005DF804FBE03C0010D1C600004FF080734C
:102B400040F8043C074B40F80C3C21F001016FF0C9
:102B5000020340F8081C40F8202C40F8243C44387C
:102B6000704700BF012B0000FFFFFFFFFFFFFFFFCB
:102B7000074B19680868B0E8F04F80F30988BFF385
:102B80006F8F4FF0000080F311887047AFF3008023
:102B9000E43C001008B54FF0180383F31188BFF32D
:102BA0006F8FBFF34F8F094A13680133012B1360F6
:102BB0000AD1074B1B6813F0FF0F05D0054940F2FF
:102BC000AB10FEF739FFFEE708BD00BFE03C001088
:102BD00004ED00E0EBC60000074A08B513682BB906
:102BE00006494FF4D970FEF727FFFEE7013B13605B
:102BF0000BB983F3118808BDE03C001020C700002A
:102C0000EFF30980BFF36F8F154B1A681EF0100F9A
:102C100008BF20ED108A20E9F04F10602DE909006F
:102C20004FF0180080F31188BFF34F8FBFF36F8F01
:102C300001F062F94FF0000080F3118809BC1968B7
:102C40000868B0E8F04F1EF0100F08BFB0EC108A13
:102C500080F30988BFF36F8F704700BFAFF3008028
:102C6000E43C001008B54FF0180383F31188BFF35C
:102C70006F8FBFF34F8F01F013F818B1034B4FF074
:102C800080521A60002383F3118808BD04ED00E030
:102C900010B5084A084C002323601360FDF7BEFA04
:102CA0004FF47A73B0FBF3F0044B0138186007233C
:102CB000236010BD18E000E010E000E014E000E048
:102CC000334B344A13B51968914205D132494FF458
:102CD0009A70FEF7B1FEFEE71A68304B9A4205D1B2
:102CE0002F4940F23510FEF7A7FEFEE72D4B1A786C
:102CF000D2B20192FF221A701B782B4ADBB28DF8F8
:102D000003309DF8033003F018031370274A07239C
:102D1000136000219DF80300000603F1FF3409D47D
:102D200011B1022B13600ED0214940F25D10FEF765
:102D300083FEFEE79DF803305B00DBB28DF80330C5
:102D400001212346E6E74FF400731360019B154A07
:102D5000DBB21370174B1A6842F478021A601A68D3
:102D600042F078421A60FFF793FF134B00241C6077
:102D7000FFF7BCFE114A136843F040431360FFF7AE
:102D8000A1FE01F0B9F8FFF7BBFE204602B010BD6E
:102D900000ED00E071C20F419EC7000070C20F41FC
:102DA000C1C7000000E400E0D83C0010DC3C00108B
:102DB000E4C7000020ED00E0E03C001034EF00E04C
:102DC00008B5EFF305830F2B0BD90D4A9B5C0D4A19
:102DD00012789A4205D90C4940F2FE20FEF72CFEEB
:102DE000FEE70A4B0A4A1B68126803F4E063934249
:102DF00005D9084940F20E30FEF71EFEFEE708BD79
:102E0000F0E300E0D83C001032C700000CED00E019
:102E1000DC3C00105CC7000000F108034FF0FF32FB
:102E20004360C0E90223036100230360704700236D
:102E30000361704743684B609A688A609A68516082
:102E40009960036808610133036070470A68531C86
:102E500030B50AD103695A684A6091608B60596045
:102E6000036808610133036030BD00F108035C684A
:102E700025689542EFD82346F9E7D0E901120369A6
:102E80008A6051605968814208BF5A60002202611D
:102E90001A68013A1A601868704710B50446FFF7BF
:102EA00079FEA46BFFF798FEB4FA84F0400910BDD8
:102EB000F8B51546026C866B044652B9076847BBE5
:102EC000806801F09FFAA76005460136A663284690
:102ED000F8BD65B9406803F019F96368226C1344C2
:102EE000A26863609342F0D323686360EDE7C06833
:102EF00003F00CF9236CE26821685B421A448A42B1
:102F0000E2603EBFA2689B18E360022D01D116B1BA
:102F1000013E0025D9E73546D7E7034610B41A6CC1
:102F2000084662B1D9689C681144A142D96024BFA7
:102F30001968D960D9685DF8044B03F0E7B85DF80B
:102F4000044B704770B50446FFF724FE94F84550D3
:102F500004F124066DB2002D14DCFF2384F8453003
:102F6000FFF73AFEFFF716FE94F8445004F11006FE
:102F70006DB2002D12DCFF2384F84430BDE87040B0
:102F8000FFF72ABE636A002BE7D0304601F094F8C1
:102F900008B101F017F9013D6DB2DCE72369002BA0
:102FA000E9D0304601F088F808B101F00BF9013D95
:102FB0006DB2DEE738B50D46044628B91A4940F22D
:102FC0000310FEF739FDFEE7FFF7E4FDD4E90F300B
:102FD000226862604343D1181B1A1344A160E36066
:102FE0000021FF23A16384F8443084F8453095B96B
:102FF000236963B104F1100001F05EF838B10B4BA6
:103000004FF080521A60BFF34F8FBFF36F8FFFF7FF
:10301000E3FD012038BD04F11000FFF7FDFE04F1CF
:103020002400FFF7F9FEF2E7EAC8000004ED00E033
:1030300013B51C4628B91E494FF49D70FEF7FCFCE1
:10304000FEE72BB91B494FF49F70FEF7F5FCFEE736
:1030500032B161B918494FF4A170FEF7EDFCFEE7FB
:1030600029B1164940F24310FEF7E6FCFEE7502373
:103070000193019B502B05D0114940F24B10FEF7F4
:10308000DBFCFEE7002908BF2246019B22600123EA
:10309000C4E90F0184F8463019462046FFF78AFF3D
:1030A0009DF8103084F84C30204602B010BD00BFAF
:1030B00027C8000049C800005FC8000097C800008A
:1030C000CFC80000F8B50D461746064628B90F4987
:1030D0004FF4BB70FEF7B0FCFEE748435030FFF7FB
:1030E000D4FC044670B1002380F8463065B100F18D
:1030F00050032360C4E90F6501212046FFF75AFF02
:1031000084F84C702046F8BD0346F2E727C800005B
:103110002DE9FF47884601921F46044628B94E49CB
:1031200040F2F120FEF788FCFEE739B9036C2BB1C1
:103130004A4940F2F220FEF77FFCFEE7022F08D159
:10314000E36B012B05D0464940F2F320FEF774FCF7
:10315000FEE701F0F5F8064638B9019B33B1414965
:1031600040F2F620FEF768FCFEE700264FF000096B
:10317000DFF8F4A037E0019D1DB9FFF72DFD002019
:1031800050E016B902A800F0D7FFFFF725FD00F0C8
:103190007FFDFFF7FFFC94F84430FF2B08BF84F855
:1031A000449094F84530FF2B08BF84F84590FFF712
:1031B00013FD01A902A800F0CBFF002846D1FFF7BC
:1031C000E9FCA26BE36B9A422FD1FFF705FD019951
:1031D00004F1100000F058FF2046FFF7B3FE00F0A6
:1031E000F1FD50B30126FFF7D5FCA26BE36B9A42C9
:1031F00001D3022FBFD13A4641462046FFF758FE81
:10320000636A1BB104F1240000F056FF38B1164B7D
:103210004FF080521A60BFF34F8FBFF36F8FFFF7ED
:10322000DBFC012004B0BDE8F087FFF7D5FC2046A9
:10323000FFF788FE00F0C6FDD4E74FF08053CAF8D0
:103240000030BFF34F8FBFF36F8FCBE72046FFF700
:1032500079FE00F0B7FD92E7EAC80000F2C800006E
:1032600042C9000089C9000004ED00E013B5002246
:1032700000900B4601201146FFF7DAFE044638B1F4
:10328000002383600360C3601A461946FFF740FFBE
:10329000204602B010BD10B5024600210120FFF704
:1032A00011FF044638B1002383600360C3601A46EF
:1032B0001946FFF72DFF204610BDFFFF2DE9F8430B
:1032C000894690461F46044628B9284940F2C33033
:1032D000FEF7B2FBFEE739B9036C2BB124494FF47A
:1032E0007170FEF7A9FBFEE7022F08D1E36B012BFB
:1032F00005D0204940F2C530FEF79EFBFEE7FFF700
:103300005FFDEFF311864FF0180383F31188BFF3CD
:103310006F8FBFF34F8FA26BE36B9A4201D3022FE3
:1033200022D194F845503A466DB249462046FFF7FF
:10333000BFFD6B1C13D1636A0BB901200BE004F1D4
:10334000240000F0B9FE0028F7D0B8F1000FF4D047
:103350000120C8F8000086F31188BDE8F883013524
:103360006DB284F84550E8E70020F4E7EAC80000B1
:10337000F2C8000042C9000070B50D46044628B9E5
:1033800023494FF48C60FEF757FBFEE7036C2BB12B
:10339000204940F26440FEF74FFBFEE703683BB96B
:1033A00083682BB11C4940F26940FEF745FBFEE7FC
:1033B000FFF706FDEFF311864FF0180383F3118832
:1033C000BFF36F8FBFF34F8FA26BE36B93421CD998
:1033D00094F8453001325BB2A2635A1C10D1636A83
:1033E0000BB9012009E004F1240000F065FE00287B
:1033F000F7D0002DF5D00120286086F3118870BD2C
:1034000001335BB284F84530EBE70020F5E700BFFD
:10341000EAC80000DFC90000F8C900002DE9F04348
:1034200085B00F460192044628B947494FF4A06081
:10343000FEF702FBFEE739B9036C2BB1434940F2BA
:103440000450FEF7F9FAFEE700F07AFF064638B9B5
:10345000019B33B13E4940F20950FEF7EDFAFEE719
:1034600000264FF00008DFF8EC903BE0019D1DB90D
:10347000FFF7B2FB002052E016B902A800F05CFE94
:10348000FFF7AAFB00F004FCFFF784FB94F844303C
:10349000FF2B08BF84F8448094F84530FF2B08BF09
:1034A00084F84580FFF798FB01A902A800F050FEC0
:1034B00000283DD12046FFF7F0FC98B3019904F1B4
:1034C000240000F0E1FD2046FFF73CFD00F07AFC0F
:1034D00038B94FF08053C9F80030BFF34F8FBFF3B6
:1034E0006F8F0126FFF756FBA56B002DBED0394626
:1034F0002046013DFFF711FDA563236963B104F187
:10350000100000F0D9FD38B1124B4FF080521A6014
:10351000BFF34F8FBFF36F8FFFF75EFB012005B046
:10352000BDE8F0832046FFF70DFD00F04BFCD8E727
:103530002046FFF707FD00F045FC2046FFF7ADFCF5
:103540000028CED096E700BF5FCA00006BCA00001B
:1035500089C9000004ED00E02DE9FF410446019116
:1035600028B9584940F29150FEF766FAFEE7056C1B
:103570002DB1554940F29550FEF75EFAFEE700F096
:10358000DFFE064638B9019B53B1504940F29A50CC
:10359000FEF752FAFEE72E460027DFF838814EE0AC
:1035A0000546F9E7019B4BB92DB1494940F2E1507D
:1035B000FEF742FAFEE7FFF70FFB5EE016B902A83E
:1035C00000F0BAFDFFF708FB00F062FBFFF7E2FA3C
:1035D00094F84430FF2B08BF84F8447094F84530C9
:1035E000FF2B08BF84F84570FFF7F6FA01A902A87F
:1035F00000F0AEFD00284AD12046FFF74EFC00281F
:103600003FD023683BB9FFF7C5FAA06800F0A8FED9
:103610000546FFF7E1FA019904F1240000F034FDBA
:103620002046FFF78FFC00F0CDFB38B94FF08053F8
:10363000C8F80030BFF34F8FBFF36F8F0126FFF73D
:10364000A9FAA36B002BADD0013BA363236813B988
:1036500000F07EFFA060236963B104F1100000F068
:103660002BFD38B11B4B4FF080521A60BFF34F8FC8
:10367000BFF36F8FFFF7B0FA0125284604B0BDE80D
:10368000F0812046FFF75EFC00F09CFBD6E7204669
:10369000FFF758FC00F096FB2046FFF7FEFB0028E2
:1036A000CCD0002DE9D0FFF775FA616A19B1236B10
:1036B0001968C1F10A01A06800F0F2FE0025FFF7C9
:1036C0008BFADAE75FCA0000DFC9000089C9000091
:1036D00009CB000004ED00E02DE9F843894690464F
:1036E000054628B9214940F2FB60FEF7A5F9FEE73F
:1036F00039B9036C2BB11E4940F2FC60FEF79CF90E
:10370000FEE7FFF75DFBEFF311874FF0180383F33C
:103710001188BFF36F8FBFF34F8FAC6B1CB395F85D
:103720004460494676B22846FFF7F7FB013C731C1C
:10373000AC6313D12B690BB901200BE005F110002C
:1037400000F0BAFC0028F7D0B8F1000FF4D0012047
:10375000C8F8000087F31188BDE8F883013676B217
:1037600085F84460E8E72046F4E700BFEAC80000B7
:10377000BECA000008B528B9064940F2B770FEF786
:103780005BF9FEE790F846301BB9BDE80840FFF74B
:103790008BB908BDEAC8000043685B68436000F16C
:1037A0000802934204BFC3684360436830B5DC68D5
:1037B00000255B689A4208BF5368D9688C420D6542
:1037C000F7D1436030BDFFFF2DE9F0410446FFF71C
:1037D000E1F92D4B2D4D1A682D4F01321A602E68DC
:1037E000002E46D12C601B68012B1CD1B8464046E8
:1037F0000136FFF711FB0A2E08F11408F7D1DFF8A4
:10380000B880244E4046FFF707FB3046FFF704FB25
:103810002148FFF701FB2148FFF7FEFA204BC3F8D0
:103820000080204B1E60204A20491368086801333D
:103830001360E26A236401239340034314200B6066
:1038400000FB0270211DFFF7F5FAFFF7C5F9184BD1
:103850001B6863B12B68DA6AE36A9A4207D2154B98
:103860004FF080521A60BFF34F8FBFF36F8FBDE8E8
:10387000F0810F4B1B68002BD5D12B68DA6AE36A05
:103880009A4298BF2C60CEE7BC3D0010E43C00108B
:10389000F03C0010E43D0010043E00101C3E0010FF
:1038A000E83C0010EC3C0010C83D0010CC3D00107E
:1038B000183E001004ED00E0D03D001008B5074CA4
:1038C000074D4FF080562368012B04D92E60BFF3BB
:1038D0004F8FBFF36F8FFEF7A7F8F4E7F03C0010AF
:1038E00004ED00E0064A13681968064B19B94FF059
:1038F000FF321A6070471268D268D2685268F8E7DF
:10390000E83C0010FC3D001008B528B9094940F218
:103910000E70FEF791F8FEE74269074B9A4207D115
:10392000806A064B984203D0B0FA80F0400908BD87
:103930000020FCE72FCB00001C3E0010043E0010CE
:103940002DE9F047DDE909644FEA82094A46074656
:103950000D46206BA521984602F000FC236BA9F1CF
:103960000409994429F007099DB36B1E04F1340240
:103970000B3513F8011F02F8011B09B1AB42F8D156
:10398000002384F83F30089D092D28BF09254FF0FA
:10399000000AE562A564201DC4F84CA0FFF747FAB1
:1039A000C5F10A0504F11800FFF741FAC4F854A064
:1039B0002461A5616462C4F850A084F858A042460E
:1039C00039464846FFF7BAF8206006B13460BDE8D2
:1039D000F08784F83450D6E7F8B51B4B1B4E1C68B3
:1039E0000546306804300F46FFF747FA334640B9C2
:1039F0003168174EC96A32680120884022EA000205
:103A000032606A1C07D137B1196812480431BDE829
:103A1000F840FFF70FBA1A686419546007D30E4ACA
:103A200010681968BDE8F8400431FFF70FBA0B4A77
:103A3000106819680431FFF709FA094B1A68A242A5
:103A400088BF1C60F8BD00BF303E0010E43C001091
:103A5000CC3D00101C3E0010EC3C0010E83C001077
:103A6000FC3D001070B586B0DDE90B542DB9154949
:103A700040F24D20FDF7E0FFFEE72CB9124940F27D
:103A80004E20FDF7D9FFFEE75C260596059E5C2ECD
:103A900005D00E4940F25620FDF7CEFFFEE7256324
:103AA000022584F8595004AD01950A9D02940095B1
:103AB000059EFFF745FF2046FFF786FE049806B0F7
:103AC00070BD00BF0ECC000025CC00003ACC000039
:103AD0002DE9F043074685B0900088461646994682
:103AE000FEF7D3FF0546E8B15C20FEF7CEFF0446A3
:103AF000A8B1002380F859300D9B056301930C9BFE
:103B00000290009332464B4641463846FFF718FF75
:103B10002046FFF759FE012005B0BDE8F083284696
:103B2000FEF7C2FF4FF0FF30F6E7FFFFF8B504469F
:103B300028B914494FF4AD60FDF77EFFFEE7124B44
:103B40001B68834218D0FFF725F8104B65691F6882
:103B50000F4B1E68FFF740F8BD4211D0B5420FD0A1
:103B60000C4B9D420AD1A36A53B994F85830012BEB
:103B70000CBF02200320F8BD0020FCE70120FAE77B
:103B80000220F8E729CB0000E43C0010E83C0010DC
:103B9000EC3C00101C3E001070B5044628B91A49D0
:103BA0004FF4E760FDF748FFFEE7184D2B688342AE
:103BB00028D0FEF7EFFF2046FFF7A6FEF0B1261D46
:103BC0003046FFF75AF91249E26A08680123934028
:103BD00003430B600F4B142000FB02303146FFF70C
:103BE00029F92B68E26ADB6A9A4207D30A4B4FF045
:103BF00080521A60BFF34F8FBFF36F8FBDE87040E4
:103C0000FEF7EABF70BD00BF9CCB0000E43C001093
:103C1000CC3D0010F03C001004ED00E010B588B081
:103C2000002407AA06A905A8CDE90544FDF724FF4D
:103C3000059B0293069B079A0F491048CDE9004364
:103C40002346FFF70FFF0E4B186090B14FF018039B
:103C500083F31188BFF36F8FBFF34F8F094B4FF082
:103C6000FF321A60084B01221A60084B1C60FFF7F4
:103C700027F808B010BD00BFB4CB0000BD3800006D
:103C8000F83D0010FC3D0010183E0010303E0010C2
:103C9000024A136801331360704700BFC43D00102F
:103CA0002DE9F84F3B4B1B68002B6BD13A4B1C683E
:103CB00001341C60A4B9394B1A6812682AB138491A
:103CC00040F67F20FDF7B8FEFEE7364A1968106817
:103CD00018601160344A136801331360FFF702FE65
:103CE000324D334F2B68A3424FF0000B11D93A6885
:103CF000304BD16A14224A439A58022A28BF4FF007
:103D0000010B2D4A1268002A0CBF58460120BDE85D
:103D1000F88FDFF888A0DFF8A890DAF800201268A2
:103D20001AB94FF0FF322A60E1E7DAF80020D268D2
:103D3000D66871688C4201D22960D8E706F1040880
:103D40004046FFF79AF8B16A19B106F11800FFF77B
:103D500094F8F06AD9F80030012202FA00F1194310
:103D6000144BC9F800104FF0140C41460CFB003006
:103D7000FFF760F83868F16AC26A914228BF4FF0D5
:103D8000010BCAE70D4A1368013313604FF0000BB3
:103D9000B7E700BFC43D0010303E0010E83C001003
:103DA00053CC0000EC3C0010003E0010FC3D001025
:103DB000E43C0010F03C0010343E0010C03D001008
:103DC000CC3D00102DE9F8432F4C23682BB92F4927
:103DD00040F68500FDF730FEFEE7FEF7DBFE2368C8
:103DE000013B236024682CB10024FEF7F5FE204639
:103DF000BDE8F883264B1B68002BF5D0254D264ED9
:103E0000DFF8A8801FE0EB68DC6804F1040904F126
:103E10001800FFF732F84846FFF72FF8E26A3168DA
:103E2000012707FA02F314200B4300FB02804946E6
:103E30003360FEF7FFFF194BE26A1B68DB6A9A42A8
:103E400001D3174B1F602B68002BDCD10CB1FFF79F
:103E500049FD144D2C6844B1114E0127FFF720FF96
:103E600000B13760013CF9D12C600D4B1B68002B71
:103E7000BAD00D4B4FF080521A60BFF34F8FBFF393
:103E80006F8F0124B1E700BFC43D0010B8CC000023
:103E9000BC3D0010043E0010CC3D0010E43C00107E
:103EA000343E0010C03D001004ED00E0F03C001076
:103EB00008B540B90D4B4FF080521A60BFF34F8FD9
:103EC000BFF36F8F08BD0A4B196829B1094940F249
:103ED0003C50FDF7B1FDFEE7FFF7DAFEFFF77CFD92
:103EE000FFF770FF0028E5D0ECE700BF04ED00E02D
:103EF000C43D001060CB000038B5274B1A68274B33
:103F000012B101221A6038BD1A60FDF7C1FD244AC2
:103F1000244C1568A84204D921680B6D5B1B03442F
:103F20000B65236810601B6B1A68B2F1A53F0BD1BB
:103F30005A68B2F1A53F07D19A68B2F1A53F03D103
:103F4000DB68B3F1A53F04D0206821683431FDF768
:103F500055FD154B1B68B3FA83F3DBB2C3F11F03A6
:103F6000142212495A4388188D582DB9104940F629
:103F7000B730FDF761FDFEE7456808326D684560C2
:103F80000A44954204BF6A684260142202FB03138C
:103F90005B68DB682360B6E7C43D0010343E001068
:103FA000B83D0010E43C0010CC3D0010F03C001087
:103FB000B9CB000070B504462A4EFEF7EBFD04B9FC
:103FC0003468251D2846FEF758FF60B9E06A264B85
:103FD000142141435B5833B9244901220B688240C4
:103FE00023EA02030B60A36A1BB104F11800FEF779
:103FF00044FF29461E481F4DFEF71CFF94F8583019
:10400000012B04BF002384F85830FEF7E5FD2A6831
:104010002AB1FEF7BFFDFFF765FCFEF7DDFD336853
:10402000A34212D12B688BB1134B1B682BB11349E0
:1040300040F2E460FDF700FDFEE7114B4FF08052C7
:104040001A60BFF34F8FBFF36F8F70BD084A1168BE
:104050000C4A1268914201D13360F6E7BDE8704026
:10406000FFF74ABFE43C0010F03C0010CC3D0010CC
:104070001C3E0010183E0010C43D001060CB000034
:1040800004ED00E0BC3D001010B50C4628B908490D
:1040900040F6CE30FDF7D0FCFEE7064B196818312C
:1040A000FEF7D4FE20460121BDE81040FFF794BC86
:1040B0007ACB0000E43C001038B5C368DC682CB94A
:1040C000164940F62940FDF7B7FCFEE704F1180554
:1040D0002846FEF7D2FE124B1B68E3B9251D284681
:1040E000FEF7CBFE0F49E26A0868012393400343C1
:1040F0000B600D4B1420294600FB0230FEF79AFEA0
:104100000A4BE26A1B68DB6A9A4283BF084B0120B4
:104110001860002038BD29460648EFE7A9CC00000A
:10412000C43D0010CC3D0010F03C0010E43C0010F9
:10413000343E0010043E0010034B1B680360034B29
:104140001B684360704700BF003E0010303E001007
:1041500070B50C46054628B9164940F69440FDF75F
:104160006BFCFEE729B9144940F69540FDF764FC65
:10417000FEE7FEF70FFD114B196823685A1C10D09B
:104180000F482E6800686A68864201D08A420FD9BB
:10419000881A83420AD95B1A134423602846FFF722
:1041A000CBFF0024FEF718FD204670BD00232360DE
:1041B0000124F7E7AACB000000CC0000303E00103D
:1041C000003E0010014B01221A607047343E00107F
:1041D00070B50C461646054608B91B4A1568256099
:1041E00005F134026260EA6A22612A6BE2612A6C9C
:1041F000A260AA6C6261052B2A6DA2611AD0124AD4
:104200001268AA420AD100232373D6B1296B002376
:10421000CA5CA52A13D09B08238470BD032B23738B
:10422000F3D1FFF735FDAB6A0BB102232373FFF720
:10423000C9FDEAE72846FFF779FC2073E5E701337B
:10424000E6E72684E9E700BFE43C00102DE9F84FDB
:104250000D6881460C46934615B34B685B684B600E
:1042600001F10806B34204BFCB684B604B68D3F83A
:104270000C8000254FF0240A63685B6863609E42EF
:1042800004BF736863606368DF680AFB05915B467F
:1042900001223846FFF79CFFB84505F10105EBD137
:1042A0002846BDE8F88FFFFF2DE9F0470546904608
:1042B000FFF7EEFC1D4B1B688B4234D8DFF87C9077
:1042C0000A2700244FF0140A2426013F06FB04505D
:1042D00001220AFB0791FFF7B9FF0444002FF4D134
:1042E000134B0222196806FB0450FFF7AFFF114B76
:1042F00004441968022206FB0450FFF7A7FF044498
:1043000006FB045003220C49FFF7A0FF0444B8F158
:10431000000F03D0FDF7BCFBC8F80000FFF752FD0B
:104320002046BDE8F0870024F8E700BFBC3D001040
:10433000E83C0010EC3C00101C3E0010F03C00106B
:10434000054B1B6833B1054B1B68002B0CBF0220CB
:104350000020704701207047183E0010C43D001037
:104360002DE9F0410446002835D0234AC36A11687C
:10437000C96A8B42174636D28269204D002AA1BFF6
:104380003A68D26AC2F10A0282611426426906FBC7
:1043900003539A4221D100F104084046FEF76DFD17
:1043A000174B48B9E06A4643AA592AB91A6801214D
:1043B000814022EA01021A603A681968D26AE26210
:1043C000012404FA02F0084318601420414600FB5F
:1043D0000250FEF72FFD204603E03B68DB6AC36214
:1043E0000120BDE8F0811368806CDC6AA0422CBF1C
:1043F00000200120F5E700BFE43C0010F03C001075
:10440000CC3D0010F8B5044608B90020F8BD1F4B9C
:104410001B68834205D01E4940F6D170FDF70CFBA6
:10442000FEE7DB6C2BB91B4940F6D270FDF704FBAD
:10443000FEE7C16A826C013B9142C364E5D0002B68
:10444000E3D1051D2846FEF718FD134E134A50B957
:10445000E76A1421794373582BB913680120B840D7
:1044600023EA00031360A36CE362C3F10A01A161B4
:104470001168012404FA03F008431060142000FBC3
:1044800003602946FEF7D6FC2046BFE7E43C001057
:104490007ECC000094CC0000F03C0010CC3D00101D
:1044A000F8B50446002847D0C26C2AB923494FF416
:1044B0008150FDF7C1FAFEE7836C994238BF194677
:1044C000C36A8B4238D0012A36D11D4A1268824213
:1044D00005D11C4941F23B00FDF7AEFAFEE78269C7
:1044E000194DC162002A4FF014064269A8BFC1F1FC
:1044F0000A0106FB0353A8BF81619A421CD1071D24
:104500003846FEF7BAFCE26A104C40B95643AB5944
:104510002BB923680121914023EA0103236021681C
:10452000012393400B4314202360394600FB0250C3
:10453000BDE8F840FEF77EBCF8BD00BF94CC00009B
:10454000E43C001086CB0000F03C0010CC3D001095
:10455000044B1A681AB11968CA6C0132CA64186827
:10456000704700BFE43C001070B5FFF791FB144D9D
:104570000A241426013C06FB04F3E818EB580BB19F
:10458000FFF70AF9002CF5D10E4B1A68126812B128
:104590001868FFF701F90C4B1A68126812B1186815
:1045A000FFF7FAF8094803680BB1FFF7F5F8084B75
:1045B00000221A60FDF776FABDE87040FFF702BCF2
:1045C000F03C0010E83C0010EC3C00101C3E0010D9
:1045D000B83D001010B5FDF75BFA064B064A1968A6
:1045E00029B1196814680B6D1B1B03440B6510601F
:1045F00010BD00BFE43C0010B83D001008B5FDF749
:1046000047FA014B186008BDB83D001010B51620E0
:104610000B4C00F001FE4FF400132360FBF702FE89
:10462000084A0223B0FBF3F1914204D8226842EA1F
:104630000323236010BD0233B3F5807FF2D1F9E785
:1046400000400340FF1AB700054A0123116803FA2E
:1046500000F008431060136843F480331360704720
:1046600000400340054B043053F82020002AFBDAB9
:1046700053F82000C0F30B10704700BF0040034008
:1046800070B5FFF7C3FF1C4C0220FFF7DDFF0420CD
:10469000FFF7DAFF01226179207900F076F9A07145
:1046A000C0B2C30800F007029B0003EBC21303F182
:1046B000804303F53033257B1A68667B22F098022D
:1046C0001A6031460322284600F05FF90322314682
:1046D000284600F05AF9A073C0B2C30800F00702E0
:1046E0009B0003EBC21303F1804303F530331A68D8
:1046F00022F098021A6070BDB429001008B5074D69
:10470000074C0220FFF7AEFF28600420FFF7AAFF46
:1047100020603220FFF7CCFBF3E700BF403E0010E3
:10472000443E0010034B04481B680360034B1B68A6
:1047300043607047403E0010383E0010443E001079
:1047400038B501220221002000F01FF901220321C7
:10475000002000F01AF904220021012000F015F9D0
:1047600001210422084600F010F90422114601201C
:1047700000F00BF90821012000F076F9284B4FF4E6
:1047800080729A610921012000F04AF902220A216F
:10479000002000F0FAF802220B210546002000F06C
:1047A000F4F80446284600F005F9204600F002F926
:1047B0000321022000F058F91A4B1B4D18701A21E2
:1047C000012000F051F9194B194C187018210120E3
:1047D00000F04AF9174B12211870012000F044F93B
:1047E000154B13211870012000F01AF90F212870C1
:1047F000012000F015F91E212070002000F010F9B2
:104800000E4B1D211870002000F00AF90C4B187097
:10481000287800F0DFF82078BDE8384000F0DAB8FA
:1048200020800920483E00104C3E0010493E0010F8
:104830004D3E00104A3E00104B3E00104E3E001010
:104840004F3E0010024B4FF48072DA61704700BF98
:1048500020800920024B4FF480729A61704700BF9C
:1048600020800920034B586980F40070C0F3402079
:10487000704700BF20800920014B1878704700BFA7
:10488000483E0010014B1878704700BF493E0010A9
:10489000014B1878704700BF4A3E0010014B187852
:1048A000704700BF4B3E001008B5054B002118684B
:1048B000FEF762FD034AD36843F40033D36008BDBA
:1048C000543E00108080024008B5032200210120E0
:1048D000FEF7F8FB094B11211860002000F0A0F84A
:1048E000074A084B08491870136943F400331361F1
:1048F00026200022BDE8084000F0B2BC543E001063
:1049000080800240503E0010A9480000014B18680A
:10491000704700BF543E001008B5094C094D3220C5
:10492000FFF7C6FA207800F0B3F820B13220FFF785
:10493000BFFA01232B703220FFF7BAFAEFE700BF6E
:10494000503E0010583E0010014B1878704700BFD1
:10495000583E0010014B00221A707047583E00105C
:10496000C0F3C40300F007029B0003EBC21303F182
:10497000804303F5303301F007011A6822F0070283
:104980001A601A6811431960704738B500F00705BE
:104990004FF0000001F01F0465F3020064F3C7004C
:1049A0001146FFF7DDFF4FF0000065F3020064F3EE
:1049B000C70038BDC0F3C40300F007029B0003EB3F
:1049C000C21303F1804303F530331A6842F4806266
:1049D0001A607047C0F3C40300F007029B0003EBAA
:1049E000C21303F1804303F530331A6822F0180232
:1049F0001A601A6842F008021A60704700F0070255
:104A0000064B53F82210C0F3C4000B68012202FACF
:104A100000F023EA00030B60704700BFE4CC000005
:104A200038B500F007054FF0000001F01F0465F3F2
:104A3000020064F3C700FFF7E1FF4FF0000065F3E9
:104A4000020064F3C70038BD00F00702054B53F8BD
:104A50002220C0F3C403116801209840084310606D
:104A6000704700BFE4CC000038B500F007054FF0F8
:104A7000000001F01F0465F3020064F3C700FFF7B4
:104A8000E3FF4FF0000065F3020064F3C70038BD98
:104A900000F00702064B53F82230C0F3C4005A69F5
:104AA000012303FA00F0104214BF1846002070479B
:104AB000E4CC000000F00702044BC0F3C40053F83C
:104AC0002220012303FA00F090617047E4CC00003B
:104AD00000F00702044BC0F3C40053F82220012366
:104AE00003FA00F0D0617047E4CC000008B501463D
:104AF000FFF7CEFF20B10846BDE80840FFF7E8BF4A
:104B00000846BDE80840FFF7D5BFFFFF2DE9F84391
:104B10000F4F0C2444433E19884635792846914668
:104B200000F07AFB3C5900233F2263604946A360B2
:104B3000284622606361B268A361E3612362636215
:104B400000F08EFB0123C4F80C806360BDE8F8839D
:104B5000FCCC00000C235843064B1B5830B50120F9
:104B60005C6901EB4105A84020435861183343F8C4
:104B7000212030BDFCCC00000C235843034B1A58B5
:104B8000012303FA01F11160704700BFFCCC000063
:104B90000C235843014B1B5898687047FCCC00000D
:104BA0000C235843014B1B5899607047FCCC000004
:104BB0002DE9F041044617461E468846FFF7C0FB24
:104BC00000210546A068FEF7C7FC00232374069B5E
:104BD000A361079BE361236884F811802022022DE2
:104BE000A77466611A600BD140F6B831A068FEF771
:104BF000B3FC18B1207CB0FA80F04009BDE8F08128
:104C00000021A068FEF7A8FC0028F9D0F2E7FFFF1A
:104C100003685A68282A13B557D00AD8102A2CD00E
:104C2000182A32D0082A09D1417C01F0FE0199608E
:104C300028E0402A63D00DD8382A77D05A68027409
:104C400020229A6110221A6008229A611A68D206FC
:104C5000FCD426E0502A5BD0582AEFD142699968EB
:104C600011700022C26120229A6110221A6008226B
:104C70009A611A68D106FCD413E0427C42F001022A
:104C80009A6008229A6102B010BDC469202199611E
:104C90000822C4B99961102119609A611A68D10675
:104CA000FCD4002301A980680193FEF765FB019BFA
:104CB000002BE8D01F4B4FF080521A60BFF34F8F8C
:104CC000BFF36F8FDFE7817CB1E7427CD20702D56B
:104CD00020221A60D5E7C2694AB920229A611022BF
:104CE0001A6008229A611A68D406FCD4D9E781694F
:104CF000013A11F8014B9C608161C261C1E7202239
:104D00009A61C269012A4FF00402E2D89A61B8E7B9
:104D1000426999681170426901324261C269013A7F
:104D2000012AC2614FF00402D3D1EFE75B6803743C
:104D3000B7E700BF04ED00E00148FFF769BF00BF1F
:104D4000042A00100148FFF763BF00BFE4290010E8
:104D50000148FFF75DBF00BFC42900102DE9F047EF
:104D60001546284A0646894607CA86B006AC04E9B5
:104D7000070040F60A32ADF808200C228DF80A2010
:104D80002149DDF838A072018F188C5806AA3244E8
:104D9000012012F8108C0322009200221146FEF727
:104DA00047F95146B8600120FEF760FAF8604046C6
:104DB00000F032FA6C23A361144A154B914588BF69
:104DC00099462823B5FBF9F25208C8215343B3FB97
:104DD000F1F323613C235A430023B2FBF1F26261F9
:104DE000A36263622362E3604023236006AB03EBAC
:104DF00086067A6856F80C1C404606B0BDE8F047B7
:104E000000F02EBA44CD0000C429001040420F002B
:104E1000A08601002DE9F3410F4690461D4623B9B7
:104E20000025284602B0BDE8F0810E4C04EB40148A
:104E30004FF0FF31E068FEF78FFB0028F0D000262E
:104E4000089B019342462B4647F0010100962046FD
:104E5000FFF7AEFE3346054632463146E068FEF7C0
:104E600057F9DEE7C42900101FB500238DF80F3075
:104E7000012300930DF10F03FFF7CCFF9DF80F0006
:104E800005B05DF804FBFFFFF7B50E4617461D465B
:104E90001BB90025284603B0F0BD0E4C04EB4014AE
:104EA0004FF0FF31E068FEF757FB0028F1D0089B78
:104EB0003A46CDE9005306F0FE0100232046FFF7F5
:104EC00077FE002305461A461946E068FEF720F9EA
:104ED000E0E700BFC42900101FB5002200920DF1C9
:104EE0000F038DF80F20FFF7CFFF05B05DF804FB2F
:104EF0001FB58DF80F30012300930DF10F03FFF75D
:104F0000C3FF05B05DF804FB2DE9F0410B78DFF835
:104F100044C00C7855782C449C4201DCBDE8F081FB
:104F20004C7804EB831565444F7892F800800E7836
:104F300007EB080EA64501DC0133EAE79E1BE71BE1
:104F400008FB060695F800E0F65D764405F8016B6F
:104F50000134E9E7593E001043780A781344402BA6
:104F6000F0B50DDC03784A781A44202A08DC0B4A95
:104F7000002602EB831204784D782C449C4200DC1E
:104F8000F0BD447845780F783D44A54202DC0133FA
:104F90004032F0E716550134F4E700BF593E0010E7
:104FA0004FF400620021014801F0D8B8593E0010CA
:104FB0002DE9F04F85B0FCF7AFFCDFF88C9100F1E4
:104FC00010030446002502934F46402617F8013B84
:104FD00013F0010F029B187900F0AA800F2D00F347
:104FE000A7800121FCF7A1FC17F8013C207B13F0FE
:104FF000020F00F09F800F2D00F39C800121FCF731
:1050000094FC17F8013C207913F0040F00F0948011
:105010000F2D00F391800121FCF787FC17F8013C6C
:1050200094F82C0013F0010F00F088800F2D40F34E
:1050300085800121FCF779FC17F8013C94F82400E5
:1050400013F0020F7CD00F2D7ADD0121FCF76DFCEF
:1050500017F8013C207F13F0040F01D00F2D71DCF5
:105060000021FCF762FC012194F85400FCF75FFC7E
:10507000002194F85400FCF75AFC013EA6D104F13B
:10508000600704F1580801213879FCF750FC04F15D
:10509000380B012198F80400FCF749FC04F1400AA0
:1050A00004F13003314694F834000393FCF738FCE4
:1050B00031469BF80400FCF733FC31469AF80400B3
:1050C000FCF72EFC04F14803314618790193FCF7F4
:1050D00027FC15F0010F039B03D001211879FCF781
:1050E0001FFCA90704D501219BF80400FCF718FC5C
:1050F0006A0704D501219AF80400FCF711FC2B077C
:1051000004D5019B01211879FCF70AFC002198F8CD
:105110000400FCF70CFC013500213879FCF707FC92
:10512000202D09F140097FF44FAF05B0BDE8F08FA5
:10513000002157E7002162E700216DE7002179E7B0
:10514000002183E701218CE7593E001008B5FFF7E5
:105150002FFFFCE7024B03EB80104254704700BF67
:10516000593E00100023084910B51C46084600228D
:105170000132402A00F8014BFAD10133202B01F112
:105180004001F3D110BD00BF593E001010B50446D8
:10519000FFF7E8FF21464FF400620248BDE81040E7
:1051A00000F0B4BF593E0010F0B50C4A03784D78BA
:1051B00007461D4402EB831200209D4200DCF0BD37
:1051C0007C780E782644A64202DC01334032F4E7B4
:1051D00012F804C001346044F5E700BF593E0010E6
:1051E000FEE7FFFF08B5FFF7F5F9084B084A1B7803
:1051F000103BDBB252F823309847064B00221A606E
:105200001B68BDE80840FFF7F9B900BF04ED00E0F6
:10521000242A00105C460010592809D8054B064A7C
:10522000185CD2F8C410012383400B43C2F8C43089
:10523000704700BF5FCD000000C00F4059289FBFDE
:10524000054B064AD3F8C430105C9ABF23FA00F02D
:1052500000F001000020704700C00F405FCD00004B
:10526000592808BF1920084B43F8201043B2002BDF
:1052700008DB012200F01F0002FA00F05B09034A7C
:1052800042F82300704700BF242A001000E100E02C
:10529000054B1A7DD20705D51B78EF2B02BF034BB8
:1052A00001221A60704700BF00C009407C46001010
:1052B00038B50D461446FFF7AFFF02221C2104202B
:1052C000FFF763FB02221D210420FFF75EFB114B59
:1052D0001A7B42F080021A731A7B42F003021A739F
:1052E0000D4A24016A43B2FBF4F2D1B2C2F30722A1
:1052F00019701A711A7B094902F07F021A735A68F1
:1053000042F001025A600820054ABDE83840FFF724
:10531000A7BF00BF00C0094040420F0091520000EB
:10532000B9CD0000044B1A7D910603D518701A7D83
:105330009206FCD50120704700C0094070B50646B2
:105340007E200D461446FFF7EDFFFF20FFF7EAFF32
:105350000620FFF7E7FF3046FFF7E4FF0120FFF7E5
:10536000E1FF2846FFF7DEFF2046FFF7DBFFEF20D7
:10537000FFF7D8FF012070BD002211460E20FFF775
:10538000DDBF08B5022200210920FFF7D7FF1E224A
:1053900000210620BDE80840FFF7D0BF01460222E9
:1053A0001720FFF7CBBF0A4601460F20FFF7C6BF05
:1053B00073B54FF0FF33B1F5805F019336D21D4CCA
:1053C0002369DE0734D41C4B1D69ED0730D41B4D17
:1053D0000326AE602E611A4D1D6002B301AE5E6001
:1053E00041F00046DE6041F20F061E61DAB1206036
:1053F00041F0806140F68112E16065602261114AEE
:10540000516A41F003015162D868C0F30B000028D3
:10541000FAD1536A23F00303536202B070BD58609F
:1054200041F00846DEE701AA2260E3E70120F4E745
:105430000220F2E7000108202001082000000820D7
:1054400008C00A4000C00A4010B50446FAF7E6FE5C
:105450004FF47A73B0FBF3F00223B0FBF3F2A242F5
:1054600002D8034A136110BD0233DBB2F5E700BF77
:1054700000C00A4010B504462420FFF7CDFE0B4BB8
:1054800007221A6002225A602046FFF7DDFF1A2029
:10549000FFF7C2FE064B01221A631A6BD207FCD536
:1054A000044A0023936042F8183C10BD00C00A4033
:1054B0000000082020010820034B9860DA68D2061B
:1054C000FCD49868C0B2704700C00A400122FFF7C0
:1054D0006FBF0022FFF76CBF02689368C3F34203FB
:1054E000022B73B5064623D0062B21D0012B34D1D5
:1054F00000248DF803400194102501AA0DF1030149
:10550000B068FEF7E9F848B133689DF803201A70D7
:10551000019B002B18BF0124013DEED10CB3124BAF
:105520004FF080521A60BFF34F8FBFF36F8F18E0B8
:105530000024019433681A7DD207EFD51B788DF8CB
:10554000033001AA00230DF10301F068FDF7B6FE58
:10555000019B002B18BF0124ECE7137DDBB2019304
:10556000019B02B070BD00BF04ED00E00148FFF7F1
:10557000B3BF00BFF82A00100148FFF7ADBF00BF5E
:10558000E82A00100148FFF7A7BF00BFD82A001083
:105590000148FFF7A1BF00BFC82A0010154B70B526
:1055A00016460546185C0C463601FFF735FEB4FB7F
:1055B000F6F307EE903AF8EE677AB6EE007A77EEF9
:1055C000877A2D01FCEEE77A0B4A17EE903A525992
:1055D0009BB280211173190ADBB211711370102371
:1055E00082F828300123137281231372032313736B
:1055F00070BD00BFF0CD0000C82A0010074B10B5E9
:105600000446185CFFF71AFE30B12401044B1B5905
:10561000187B003018BF012010BD00BFF0CD000086
:10562000C82A0010034B03EB00108068003018BF3D
:1056300001207047C82A0010034B03EB0010C0681C
:10564000003018BF01207047C82A00102DE9F84328
:10565000074689469046FFF7D1FF064618B900264F
:105660003046BDE8F883124C3D016319DA6822B96F
:10567000B9F1000F01D0C3F80C9063199A6822B9F0
:10568000B8F1000F01D0C3F808806319DA68002A66
:10569000E5D09A68002AE2D05A68064B53F82710E2
:1056A000054BD85DFFF7DCFD635907225A60D7E749
:1056B000C82A0010E0CD0000F0CD000038B5074A40
:1056C00003010D46D458FFF799FF30B1237D9A06A8
:1056D000FCD52570237D9B06FCD538BDC82A00105B
:1056E00070B504460E461546FEF72AFE0E4B03EB38
:1056F0000413DC68B4B1022814D16B1C09D04FF438
:105700007A70A5FB00014FF47A72002300F0D6FAFC
:1057100005462A4631462046FDF780FE003018BF78
:10572000012070BD0020FCE7C82A00102DE9F843D5
:1057300005460E46114CFEF703FE2F01E319814684
:105740002846D3F80C80FFF759FF98B1B9F1020F42
:105750000AD1B8F1000F07D0314628464FF0FF328A
:10576000BDE8F843FFF7BCBFE3591A7DD207FCD56B
:105770001B7833700020BDE8F88300BFC82A0010F2
:10578000F7B505461C4E8DF807102D011746FEF79C
:10579000D7FD73199C6854B302282BD1791C09D00A
:1057A0004FF47A70A7FB00014FF47A72002300F0E7
:1057B00085FA074600233A460DF107012046FDF71A
:1057C000A7FC041C18BF0124FDF7E4F973197559EF
:1057D0002A7D520609D500220DF107019868FDF7D0
:1057E0007BFF10B19DF807302B70FDF7F5F92046CF
:1057F00003B0F0BD0024FAE7C82A001037B5FBF764
:10580000E5FC00240225FCF795F8FFF7C9FBFEF73D
:1058100037FFFFF759F84FF4165260210820FFF7C1
:1058200047FDFFF7AEFD2346CDE900544FF48062FB
:105830002C492D48FEF74CF92346CDE900544FF48E
:1058400080622A492A48FEF743F92346CDE90054ED
:105850004FF4806227492848FEF73AF9274B284938
:105860002848CDE900534FF480722346FEF730F903
:10587000254B26492648CDE900534FF48062234644
:10588000FEF726F9234B24492448CDE900534FF471
:1058900080622346FEF71CF92346CDE900544FF4FD
:1058A00080721F491F48FEF713F91F4B1F492048FC
:1058B000CDE900534FF480622346FEF709F91D4BF2
:1058C0001D491E484FF48062CDE900532346FEF780
:1058D000FFF81B4801F002FDFEF7A0F9204603B0D7
:1058E00030BD00BFF4CD00004D51000000CE0000DF
:1058F000FD46000009CE0000E51E000070460010C5
:1059000010CE0000FD200000684600101BCE0000F5
:10591000C11D00006C46001021CE00005122000085
:1059200029CE0000194900007846001036CE00004C
:10593000AD240000744600103CCE0000F5220000AB
:1059400042CE000081F0004102E000BF83F000433E
:1059500030B54FEA41044FEA430594EA050F08BF0A
:1059600090EA020F1FBF54EA000C55EA020C7FEACE
:10597000645C7FEA655C00F0E2804FEA5454D4EB4B
:105980005555B8BF6D420CDD2C4480EA020281EA15
:10599000030382EA000083EA010180EA020281EA4D
:1059A0000303362D88BF30BD11F0004F4FEA01319F
:1059B0004FF4801C4CEA113102D0404261EB4101AE
:1059C00013F0004F4FEA03334CEA133302D0524234
:1059D00063EB430394EA050F00F0A780A4F10104F0
:1059E000D5F1200E0DDB02FA0EFC22FA05F280182A
:1059F00041F1000103FA0EF2801843FA05F3594110
:105A00000EE0A5F120050EF1200E012A03FA0EFC8E
:105A100028BF4CF0020C43FA05F3C01851EBE371B8
:105A200001F0004507D54FF0000EDCF1000C7EEBD5
:105A300000006EEB0101B1F5801F1BD3B1F5001F13
:105A40000CD349085FEA30004FEA3C0C04F1010432
:105A50004FEA445212F5800F80F09A80BCF1004F5B
:105A600008BF5FEA500C50F1000041EB045141EADD
:105A7000050130BD5FEA4C0C404141EB010111F4DE
:105A8000801FA4F10104E9D191F0000F04BF014689
:105A90000020B1FA81F308BF2033A3F10B03B3F167
:105AA00020020CDA0C3208DD02F1140CC2F10C02F7
:105AB00001FA0CF021FA02F10CE002F11402D8BF55
:105AC000C2F1200C01FA02F120FA0CFCDCBF41EA21
:105AD0000C019040E41AA2BF01EB0451294330BDF0
